{
  "contractName": "BBOTest",
  "abi": [
    {
      "constant": true,
      "inputs": [],
      "name": "name",
      "outputs": [
        {
          "name": "",
          "type": "string"
        }
      ],
      "payable": false,
      "stateMutability": "view",
      "type": "function"
    },
    {
      "constant": false,
      "inputs": [
        {
          "name": "_spender",
          "type": "address"
        },
        {
          "name": "_value",
          "type": "uint256"
        }
      ],
      "name": "approve",
      "outputs": [
        {
          "name": "",
          "type": "bool"
        }
      ],
      "payable": false,
      "stateMutability": "nonpayable",
      "type": "function"
    },
    {
      "constant": true,
      "inputs": [],
      "name": "totalSupply",
      "outputs": [
        {
          "name": "",
          "type": "uint256"
        }
      ],
      "payable": false,
      "stateMutability": "view",
      "type": "function"
    },
    {
      "constant": false,
      "inputs": [
        {
          "name": "_from",
          "type": "address"
        },
        {
          "name": "_to",
          "type": "address"
        },
        {
          "name": "_value",
          "type": "uint256"
        }
      ],
      "name": "transferFrom",
      "outputs": [
        {
          "name": "",
          "type": "bool"
        }
      ],
      "payable": false,
      "stateMutability": "nonpayable",
      "type": "function"
    },
    {
      "constant": true,
      "inputs": [],
      "name": "decimals",
      "outputs": [
        {
          "name": "",
          "type": "uint8"
        }
      ],
      "payable": false,
      "stateMutability": "view",
      "type": "function"
    },
    {
      "constant": false,
      "inputs": [
        {
          "name": "_spender",
          "type": "address"
        },
        {
          "name": "_subtractedValue",
          "type": "uint256"
        }
      ],
      "name": "decreaseApproval",
      "outputs": [
        {
          "name": "",
          "type": "bool"
        }
      ],
      "payable": false,
      "stateMutability": "nonpayable",
      "type": "function"
    },
    {
      "constant": true,
      "inputs": [
        {
          "name": "_owner",
          "type": "address"
        }
      ],
      "name": "balanceOf",
      "outputs": [
        {
          "name": "",
          "type": "uint256"
        }
      ],
      "payable": false,
      "stateMutability": "view",
      "type": "function"
    },
    {
      "constant": true,
      "inputs": [],
      "name": "symbol",
      "outputs": [
        {
          "name": "",
          "type": "string"
        }
      ],
      "payable": false,
      "stateMutability": "view",
      "type": "function"
    },
    {
      "constant": false,
      "inputs": [
        {
          "name": "_to",
          "type": "address"
        },
        {
          "name": "_value",
          "type": "uint256"
        }
      ],
      "name": "transfer",
      "outputs": [
        {
          "name": "",
          "type": "bool"
        }
      ],
      "payable": false,
      "stateMutability": "nonpayable",
      "type": "function"
    },
    {
      "constant": false,
      "inputs": [
        {
          "name": "_spender",
          "type": "address"
        },
        {
          "name": "_addedValue",
          "type": "uint256"
        }
      ],
      "name": "increaseApproval",
      "outputs": [
        {
          "name": "",
          "type": "bool"
        }
      ],
      "payable": false,
      "stateMutability": "nonpayable",
      "type": "function"
    },
    {
      "constant": true,
      "inputs": [
        {
          "name": "_owner",
          "type": "address"
        },
        {
          "name": "_spender",
          "type": "address"
        }
      ],
      "name": "allowance",
      "outputs": [
        {
          "name": "",
          "type": "uint256"
        }
      ],
      "payable": false,
      "stateMutability": "view",
      "type": "function"
    },
    {
      "inputs": [],
      "payable": false,
      "stateMutability": "nonpayable",
      "type": "constructor"
    },
    {
      "anonymous": false,
      "inputs": [
        {
          "indexed": true,
          "name": "owner",
          "type": "address"
        },
        {
          "indexed": true,
          "name": "spender",
          "type": "address"
        },
        {
          "indexed": false,
          "name": "value",
          "type": "uint256"
        }
      ],
      "name": "Approval",
      "type": "event"
    },
    {
      "anonymous": false,
      "inputs": [
        {
          "indexed": true,
          "name": "from",
          "type": "address"
        },
        {
          "indexed": true,
          "name": "to",
          "type": "address"
        },
        {
          "indexed": false,
          "name": "value",
          "type": "uint256"
        }
      ],
      "name": "Transfer",
      "type": "event"
    }
  ],
  "bytecode": "0x60c0604052600660808190527f426967626f6d000000000000000000000000000000000000000000000000000060a090815261003e91600391906100c6565b506040805180820190915260038082527f42424f00000000000000000000000000000000000000000000000000000000006020909201918252610083916004916100c6565b506005805460ff191660121790556b06765c793fa10079d00000006006553480156100ad57600080fd5b5060065433600090815260208190526040902055610161565b828054600181600116156101000203166002900490600052602060002090601f016020900481019282601f1061010757805160ff1916838001178555610134565b82800160010185558215610134579182015b82811115610134578251825591602001919060010190610119565b50610140929150610144565b5090565b61015e91905b80821115610140576000815560010161014a565b90565b61088b806101706000396000f3006080604052600436106100ae5763ffffffff7c010000000000000000000000000000000000000000000000000000000060003504166306fdde0381146100b3578063095ea7b31461013d57806318160ddd1461017557806323b872dd1461019c578063313ce567146101c657806366188463146101f157806370a082311461021557806395d89b4114610236578063a9059cbb1461024b578063d73dd6231461026f578063dd62ed3e14610293575b600080fd5b3480156100bf57600080fd5b506100c86102ba565b6040805160208082528351818301528351919283929083019185019080838360005b838110156101025781810151838201526020016100ea565b50505050905090810190601f16801561012f5780820380516001836020036101000a031916815260200191505b509250505060405180910390f35b34801561014957600080fd5b50610161600160a060020a0360043516602435610348565b604080519115158252519081900360200190f35b34801561018157600080fd5b5061018a6103ae565b60408051918252519081900360200190f35b3480156101a857600080fd5b50610161600160a060020a03600435811690602435166044356103b4565b3480156101d257600080fd5b506101db610529565b6040805160ff9092168252519081900360200190f35b3480156101fd57600080fd5b50610161600160a060020a0360043516602435610532565b34801561022157600080fd5b5061018a600160a060020a0360043516610621565b34801561024257600080fd5b506100c861063c565b34801561025757600080fd5b50610161600160a060020a0360043516602435610697565b34801561027b57600080fd5b50610161600160a060020a0360043516602435610776565b34801561029f57600080fd5b5061018a600160a060020a036004358116906024351661080f565b6003805460408051602060026001851615610100026000190190941693909304601f810184900484028201840190925281815292918301828280156103405780601f1061031557610100808354040283529160200191610340565b820191906000526020600020905b81548152906001019060200180831161032357829003601f168201915b505050505081565b336000818152600260209081526040808320600160a060020a038716808552908352818420869055815186815291519394909390927f8c5be1e5ebec7d5bd14f71427d1e84f3dd0314c0f7b2291e5b200ac8c7c3b925928290030190a350600192915050565b60065481565b600160a060020a0383166000908152602081905260408120548211156103d957600080fd5b600160a060020a038416600090815260026020908152604080832033845290915290205482111561040957600080fd5b600160a060020a038316151561041e57600080fd5b600160a060020a038416600090815260208190526040902054610447908363ffffffff61083a16565b600160a060020a03808616600090815260208190526040808220939093559085168152205461047c908363ffffffff61084c16565b600160a060020a038085166000908152602081815260408083209490945591871681526002825282812033825290915220546104be908363ffffffff61083a16565b600160a060020a03808616600081815260026020908152604080832033845282529182902094909455805186815290519287169391927fddf252ad1be2c89b69c2b068fc378daa952ba7f163c4a11628f55a4df523b3ef929181900390910190a35060019392505050565b60055460ff1681565b336000908152600260209081526040808320600160a060020a038616845290915281205480831061058657336000908152600260209081526040808320600160a060020a03881684529091528120556105bb565b610596818463ffffffff61083a16565b336000908152600260209081526040808320600160a060020a03891684529091529020555b336000818152600260209081526040808320600160a060020a0389168085529083529281902054815190815290519293927f8c5be1e5ebec7d5bd14f71427d1e84f3dd0314c0f7b2291e5b200ac8c7c3b925929181900390910190a35060019392505050565b600160a060020a031660009081526020819052604090205490565b6004805460408051602060026001851615610100026000190190941693909304601f810184900484028201840190925281815292918301828280156103405780601f1061031557610100808354040283529160200191610340565b336000908152602081905260408120548211156106b357600080fd5b600160a060020a03831615156106c857600080fd5b336000908152602081905260409020546106e8908363ffffffff61083a16565b3360009081526020819052604080822092909255600160a060020a0385168152205461071a908363ffffffff61084c16565b600160a060020a038416600081815260208181526040918290209390935580518581529051919233927fddf252ad1be2c89b69c2b068fc378daa952ba7f163c4a11628f55a4df523b3ef9281900390910190a350600192915050565b336000908152600260209081526040808320600160a060020a03861684529091528120546107aa908363ffffffff61084c16565b336000818152600260209081526040808320600160a060020a0389168085529083529281902085905580519485525191937f8c5be1e5ebec7d5bd14f71427d1e84f3dd0314c0f7b2291e5b200ac8c7c3b925929081900390910190a350600192915050565b600160a060020a03918216600090815260026020908152604080832093909416825291909152205490565b60008282111561084657fe5b50900390565b8181018281101561085957fe5b929150505600a165627a7a7230582064e0442429f57452c30276323722ef49b485edb2d9c2f93fc00e840f5a9cb4ab0029",
  "source": "pragma solidity ^0.4.24;\n\nimport \"./StandardToken.sol\";\n\n\n/**\n * @title DetailedERC20 token\n * @dev The decimals are only for visualization purposes.\n * All the operations are done using the smallest and indivisible token unit,\n * just as on Ethereum all the operations are done in wei.\n */\ncontract BBOTest is StandardToken {\n  string public name = 'Bigbom';\n  string public symbol = 'BBO';\n  uint8 public decimals = 18;\n  uint    public   totalSupply = 2000000000 * 1e18; //2,000,000,000\n  constructor (){\n  \tbalances[msg.sender] = totalSupply;\n  }\n}\n",
  "sourcePath": "/Users/yena/Documents/tuongnguyen/bigbom-hold/contracts/zeppelin/token/ERC20/BBOTest.sol",
  "compiler": {
    "name": "solc",
    "version": "0.4.24+commit.e67f0147.Emscripten.clang"
  },
  "schemaVersion": "2.0.1",
  "updatedAt": "2018-11-01T08:55:53.110Z"
}