{
  "contractName": "BBOHoldingContract",
  "abi": [
    {
      "constant": true,
      "inputs": [],
      "name": "WITHDRAWAL_DELAY",
      "outputs": [
        {
          "name": "",
          "type": "uint256"
        }
      ],
      "payable": false,
      "stateMutability": "view",
      "type": "function"
    },
    {
      "constant": true,
      "inputs": [],
      "name": "withdrawId",
      "outputs": [
        {
          "name": "",
          "type": "uint256"
        }
      ],
      "payable": false,
      "stateMutability": "view",
      "type": "function"
    },
    {
      "constant": true,
      "inputs": [],
      "name": "depositStartTime",
      "outputs": [
        {
          "name": "",
          "type": "uint256"
        }
      ],
      "payable": false,
      "stateMutability": "view",
      "type": "function"
    },
    {
      "constant": true,
      "inputs": [],
      "name": "bboDeposited",
      "outputs": [
        {
          "name": "",
          "type": "uint256"
        }
      ],
      "payable": false,
      "stateMutability": "view",
      "type": "function"
    },
    {
      "constant": true,
      "inputs": [],
      "name": "depositStopTime",
      "outputs": [
        {
          "name": "",
          "type": "uint256"
        }
      ],
      "payable": false,
      "stateMutability": "view",
      "type": "function"
    },
    {
      "constant": true,
      "inputs": [],
      "name": "owner",
      "outputs": [
        {
          "name": "",
          "type": "address"
        }
      ],
      "payable": false,
      "stateMutability": "view",
      "type": "function"
    },
    {
      "constant": true,
      "inputs": [],
      "name": "depositId",
      "outputs": [
        {
          "name": "",
          "type": "uint256"
        }
      ],
      "payable": false,
      "stateMutability": "view",
      "type": "function"
    },
    {
      "constant": true,
      "inputs": [],
      "name": "WITHDRAWAL_SCALE",
      "outputs": [
        {
          "name": "",
          "type": "uint256"
        }
      ],
      "payable": false,
      "stateMutability": "view",
      "type": "function"
    },
    {
      "constant": true,
      "inputs": [],
      "name": "DRAIN_DELAY",
      "outputs": [
        {
          "name": "",
          "type": "uint256"
        }
      ],
      "payable": false,
      "stateMutability": "view",
      "type": "function"
    },
    {
      "constant": true,
      "inputs": [],
      "name": "bboTokenAddress",
      "outputs": [
        {
          "name": "",
          "type": "address"
        }
      ],
      "payable": false,
      "stateMutability": "view",
      "type": "function"
    },
    {
      "constant": true,
      "inputs": [],
      "name": "DEPOSIT_PERIOD",
      "outputs": [
        {
          "name": "",
          "type": "uint256"
        }
      ],
      "payable": false,
      "stateMutability": "view",
      "type": "function"
    },
    {
      "inputs": [
        {
          "name": "_bboTokenAddress",
          "type": "address"
        },
        {
          "name": "_owner",
          "type": "address"
        }
      ],
      "payable": false,
      "stateMutability": "nonpayable",
      "type": "constructor"
    },
    {
      "payable": true,
      "stateMutability": "payable",
      "type": "fallback"
    },
    {
      "anonymous": false,
      "inputs": [
        {
          "indexed": false,
          "name": "_time",
          "type": "uint256"
        }
      ],
      "name": "Started",
      "type": "event"
    },
    {
      "anonymous": false,
      "inputs": [
        {
          "indexed": false,
          "name": "_bboAmount",
          "type": "uint256"
        }
      ],
      "name": "Drained",
      "type": "event"
    },
    {
      "anonymous": false,
      "inputs": [
        {
          "indexed": false,
          "name": "_depositId",
          "type": "uint256"
        },
        {
          "indexed": true,
          "name": "_addr",
          "type": "address"
        },
        {
          "indexed": false,
          "name": "_bboAmount",
          "type": "uint256"
        }
      ],
      "name": "Deposit",
      "type": "event"
    },
    {
      "anonymous": false,
      "inputs": [
        {
          "indexed": false,
          "name": "_withdrawId",
          "type": "uint256"
        },
        {
          "indexed": true,
          "name": "_addr",
          "type": "address"
        },
        {
          "indexed": false,
          "name": "_bboAmount",
          "type": "uint256"
        }
      ],
      "name": "Withdrawal",
      "type": "event"
    },
    {
      "constant": false,
      "inputs": [],
      "name": "start",
      "outputs": [],
      "payable": false,
      "stateMutability": "nonpayable",
      "type": "function"
    },
    {
      "constant": false,
      "inputs": [],
      "name": "drain",
      "outputs": [],
      "payable": false,
      "stateMutability": "nonpayable",
      "type": "function"
    },
    {
      "constant": true,
      "inputs": [],
      "name": "bboBalance",
      "outputs": [
        {
          "name": "",
          "type": "uint256"
        }
      ],
      "payable": false,
      "stateMutability": "view",
      "type": "function"
    },
    {
      "constant": true,
      "inputs": [],
      "name": "holdBalance",
      "outputs": [
        {
          "name": "",
          "type": "uint256"
        }
      ],
      "payable": false,
      "stateMutability": "view",
      "type": "function"
    },
    {
      "constant": false,
      "inputs": [],
      "name": "depositBBO",
      "outputs": [],
      "payable": true,
      "stateMutability": "payable",
      "type": "function"
    },
    {
      "constant": false,
      "inputs": [],
      "name": "withdrawBBO",
      "outputs": [],
      "payable": true,
      "stateMutability": "payable",
      "type": "function"
    },
    {
      "constant": true,
      "inputs": [
        {
          "name": "_bboWithdrawalBase",
          "type": "uint256"
        }
      ],
      "name": "getBonus",
      "outputs": [
        {
          "name": "",
          "type": "uint256"
        }
      ],
      "payable": false,
      "stateMutability": "view",
      "type": "function"
    },
    {
      "constant": true,
      "inputs": [
        {
          "name": "_totalBonusRemaining",
          "type": "uint256"
        },
        {
          "name": "_bboDeposited",
          "type": "uint256"
        },
        {
          "name": "_bboWithdrawalBase",
          "type": "uint256"
        }
      ],
      "name": "internalCalculateBonus",
      "outputs": [
        {
          "name": "",
          "type": "uint256"
        }
      ],
      "payable": false,
      "stateMutability": "view",
      "type": "function"
    }
  ],
  "bytecode": "0x608060405260008054600160a060020a03199081168255600180549091169055600281905560038190556004819055600681905560075534801561004257600080fd5b50604051604080610dce833981016040528051602090910151600160a060020a038216151561007057600080fd5b600160a060020a038116151561008557600080fd5b60008054600160a060020a03938416600160a060020a03199182161790915560018054929093169116179055610d0e806100c06000396000f3006080604052600436106101065763ffffffff7c01000000000000000000000000000000000000000000000000000000006000350416630ebb172a81146101545780631648371d1461017b57806326c989df14610190578063298d3567146101a557806336d43c24146101ad5780634aa66b28146101c2578063587419d5146101da5780636abab2fd146101ef57806373c4942a146102045780638da5cb5b146102195780639852099c146102575780639890220b1461026c578063ab4b4def14610281578063be9a655514610296578063c99f3357146102ab578063dd4f5f0f146102c0578063ef427776146102c8578063f3ddf159146102e6578063fd090e47146102fb575b60035460001061011557600080fd5b600354421015801561012957506004544211155b1561013b57610136610310565b610152565b60045442111561014d57610136610609565b600080fd5b005b34801561016057600080fd5b50610169610863565b60408051918252519081900360200190f35b34801561018757600080fd5b5061016961086b565b34801561019c57600080fd5b5061016961090f565b610152610310565b3480156101b957600080fd5b50610169610922565b3480156101ce57600080fd5b50610169600435610928565b3480156101e657600080fd5b50610169610948565b3480156101fb57600080fd5b5061016961094e565b34801561021057600080fd5b50610169610954565b34801561022557600080fd5b5061022e61095a565b6040805173ffffffffffffffffffffffffffffffffffffffff9092168252519081900360200190f35b34801561026357600080fd5b50610169610976565b34801561027857600080fd5b5061015261097c565b34801561028d57600080fd5b50610169610ace565b3480156102a257600080fd5b50610152610ad5565b3480156102b757600080fd5b50610169610b48565b610152610609565b3480156102d457600080fd5b50610169600435602435604435610b50565b3480156102f257600080fd5b5061022e610bdc565b34801561030757600080fd5b50610169610bf8565b60008060008060035411151561032557600080fd5b341561033057600080fd5b600354421015801561034457506004544211155b151561034f57600080fd5b60008054604080517fdd62ed3e000000000000000000000000000000000000000000000000000000008152336004820152306024820152905173ffffffffffffffffffffffffffffffffffffffff90921695506104a292869263dd62ed3e926044808201936020939283900390910190829087803b1580156103d057600080fd5b505af11580156103e4573d6000803e3d6000fd5b505050506040513d60208110156103fa57600080fd5b5051604080517f70a08231000000000000000000000000000000000000000000000000000000008152336004820152905173ffffffffffffffffffffffffffffffffffffffff8716916370a082319160248083019260209291908290030181600087803b15801561046a57600080fd5b505af115801561047e573d6000803e3d6000fd5b505050506040513d602081101561049457600080fd5b50519063ffffffff610bff16565b9150600082116104b157600080fd5b5033600090815260056020526040902080546104d3908363ffffffff610c1716565b8082554260018084019182553360009081526005602052604090209283559054910155600254610509908363ffffffff610c1716565b60025560068054600181019091556040805191825260208201849052805133927feaa18152488ce5959073c9c79c88ca90b3d96c00de1f118cfaad664c3dab06b992908290030190a2604080517f23b872dd00000000000000000000000000000000000000000000000000000000815233600482015230602482015260448101849052905173ffffffffffffffffffffffffffffffffffffffff8516916323b872dd9160648083019260209291908290030181600087803b1580156105cd57600080fd5b505af11580156105e1573d6000803e3d6000fd5b505050506040513d60208110156105f757600080fd5b5051151561060457600080fd5b505050565b60008060008060008060035411151561062157600080fd5b60025460001061063057600080fd5b33600090815260056020526040902060018101549095506302c7ea000142101561065957600080fd5b845460001061066757600080fd5b84549350600034111561069a5761069761068a346298968063ffffffff610c2416565b859063ffffffff610bff16565b93505b6106a384610928565b92506106ad61086b565b91506106c18285850163ffffffff610bff16565b6002549091506106d7908563ffffffff610c4d16565b60025584546106ec908563ffffffff610c4d16565b8086551515610710573360009081526005602052604081208181556001015561072d565b336000908152600560205260409020855481556001808701549101555b60078054600181019091556040805191825260208201839052805133927f37e8063b72a944a76de602f32b82fd8c2a1c6f99564c727ffaf913c7762cd42092908290030190a260008054604080517fa9059cbb00000000000000000000000000000000000000000000000000000000815233600482015260248101859052905173ffffffffffffffffffffffffffffffffffffffff9092169263a9059cbb926044808401936020939083900390910190829087803b1580156107ee57600080fd5b505af1158015610802573d6000803e3d6000fd5b505050506040513d602081101561081857600080fd5b5051151561082557600080fd5b600034111561085c5760405133903480156108fc02916000818181858888f1935050505015801561085a573d6000803e3d6000fd5b505b5050505050565b6302c7ea0081565b60008054604080517f70a08231000000000000000000000000000000000000000000000000000000008152306004820152905173ffffffffffffffffffffffffffffffffffffffff909216916370a082319160248082019260209290919082900301818787803b1580156108de57600080fd5b505af11580156108f2573d6000803e3d6000fd5b505050506040513d602081101561090857600080fd5b5051905090565b3360009081526005602052604090205490565b60075481565b600061094260025461093861086b565b0360025484610b50565b92915050565b60035481565b60025481565b60045481565b60015473ffffffffffffffffffffffffffffffffffffffff1681565b60065481565b60015460009073ffffffffffffffffffffffffffffffffffffffff1633146109a357600080fd5b60006003541180156109bd575063058fd400600354014210155b15156109c857600080fd5b6109d061086b565b9050600081116109df57600080fd5b60008054600154604080517fa9059cbb00000000000000000000000000000000000000000000000000000000815273ffffffffffffffffffffffffffffffffffffffff9283166004820152602481018690529051919092169263a9059cbb92604480820193602093909283900390910190829087803b158015610a6157600080fd5b505af1158015610a75573d6000803e3d6000fd5b505050506040513d6020811015610a8b57600080fd5b50511515610a9857600080fd5b6040805182815290517fdef931299fe61d176f949118058530c1f3f539dcb6950b4e372c9b835c33ca079181900360200190a150565b6298968081565b60015473ffffffffffffffffffffffffffffffffffffffff163314610af957600080fd5b60035415610b0657600080fd5b426003819055624f1a00810160045560408051918252517e6e0c97de781a7389d44ba8fd35d1467cabb17ed04d038d166d34ab819213f39181900360200190a1565b63058fd40081565b6000808311610b5e57600080fd5b6000841015610b6c57600080fd5b610bd4610b96610b89610b84610b84610b8488610c5f565b610c5f565b859063ffffffff610c2416565b610bc8610bbb610bae610b84610b84610b8489610c5f565b869063ffffffff610c2416565b879063ffffffff610c2416565b9063ffffffff610ccd16565b949350505050565b60005473ffffffffffffffffffffffffffffffffffffffff1681565b624f1a0081565b6000818310610c0e5781610c10565b825b9392505050565b8181018281101561094257fe5b6000821515610c3557506000610942565b50818102818382811515610c4557fe5b041461094257fe5b600082821115610c5957fe5b50900390565b60008181805b60028386811515610c7257fe5b048401811515610c7e57fe5b04915060028286811515610c8e57fe5b048301811515610c9a57fe5b04905082811415610cbd5782811015610cb557809350610cc5565b829350610cc5565b809250610c65565b505050919050565b60008183811515610cda57fe5b0493925050505600a165627a7a723058205fbfc03e1ddb5658bb12f5ed1aff932e32ff99f380dce401f17104d0439704a20029",
  "source": "\npragma solidity ^0.4.24;\n\nimport './zeppelin/math/SafeMath.sol';\nimport './zeppelin/math/Math.sol';\nimport './zeppelin/token/ERC20/ERC20.sol';\n\n/// @title BibBom Token Holding Incentive Program\n/// @author TranTho - <thoff@bigbom.com>.\n/// For more information, please visit https://bigbom.com.\ncontract BBOHoldingContract {\n    using SafeMath for uint;\n    using Math for uint;\n   \n    // During the first 60 days of deployment, this contract opens for deposit of BBO.\n    uint public constant DEPOSIT_PERIOD             = 60 days; // = 2 months\n\n    // 18 months after deposit, user can withdrawal all or part of his/her BBO with bonus.\n    // The bonus is this contract's initial BBO balance.\n    uint public constant WITHDRAWAL_DELAY           = 540 days; // = 1 year and 6 months\n\n    // Send 0.001ETH per 10000 BBO partial withdrawal, or 0 for a once-for-all withdrawal.\n    // All ETH will be returned.\n    uint public constant WITHDRAWAL_SCALE           = 1E7; // 1ETH for withdrawal of 10,000,000 BBO.\n\n    // Ower can drain all remaining BBO after 3 years.\n    uint public constant DRAIN_DELAY                = 1080 days; // = 3 years.\n    \n    address public bboTokenAddress  = 0x0;\n    address public owner            = 0x0;\n\n    uint public bboDeposited        = 0;\n    uint public depositStartTime    = 0;\n    uint public depositStopTime     = 0;\n\n    struct Record {\n        uint bboAmount;\n        uint timestamp;\n    }\n\n    mapping (address => Record) records;\n    \n    /* \n     * EVENTS\n     */\n\n    /// Emitted when program starts.\n    event Started(uint _time);\n\n    /// Emitted when all BBO are drained.\n    event Drained(uint _bboAmount);\n\n    /// Emitted for each sucuessful deposit.\n    uint public depositId = 0;\n    event Deposit(uint _depositId, address indexed _addr, uint _bboAmount);\n\n    /// Emitted for each sucuessful deposit.\n    uint public withdrawId = 0;\n    event Withdrawal(uint _withdrawId, address indexed _addr, uint _bboAmount);\n\n    /// @dev Initialize the contract\n    /// @param _bboTokenAddress BBO ERC20 token address\n    constructor (address _bboTokenAddress, address _owner) public {\n        require(_bboTokenAddress != address(0));\n        require(_owner != address(0));\n\n        bboTokenAddress = _bboTokenAddress;\n        owner = _owner;\n    }\n\n    /*\n     * PUBLIC FUNCTIONS\n     */\n\n    /// @dev start the program.\n    function start() public {\n        require(msg.sender == owner);\n        require(depositStartTime == 0);\n\n        depositStartTime = now;\n        depositStopTime  = depositStartTime + DEPOSIT_PERIOD;\n\n        emit Started(depositStartTime);\n    }\n\n\n    /// @dev drain BBO.\n    function drain() public {\n        require(msg.sender == owner);\n        require(depositStartTime > 0 && now >= depositStartTime + DRAIN_DELAY);\n\n        uint balance = bboBalance();\n        require(balance > 0);\n\n        require(ERC20(bboTokenAddress).transfer(owner, balance));\n\n        emit Drained(balance);\n    }\n\n    function () payable {\n        require(depositStartTime > 0);\n\n        if (now >= depositStartTime && now <= depositStopTime) {\n            depositBBO();\n        } else if (now > depositStopTime){\n            withdrawBBO();\n        } else {\n            revert();\n        }\n    }\n\n    /// @return Current BBO balance.\n    function bboBalance() public constant returns (uint) {\n        return ERC20(bboTokenAddress).balanceOf(address(this));\n    }\n    function holdBalance() public constant returns (uint) {\n        return records[msg.sender].bboAmount;\n    }\n    /// @dev Deposit BBO.\n    function depositBBO() payable {\n        require(depositStartTime > 0);\n        require(msg.value == 0);\n        require(now >= depositStartTime && now <= depositStopTime);\n        \n        ERC20 bboToken = ERC20(bboTokenAddress);\n        uint bboAmount = bboToken\n            .balanceOf(msg.sender)\n            .min256(bboToken.allowance(msg.sender, address(this)));\n\n        require(bboAmount > 0);\n\n        Record storage record = records[msg.sender];\n        record.bboAmount = record.bboAmount.add(bboAmount);\n        record.timestamp = now;\n        records[msg.sender] = record;\n\n        bboDeposited = bboDeposited.add(bboAmount);\n\n        emit Deposit(depositId++, msg.sender, bboAmount);\n        \n        require(bboToken.transferFrom(msg.sender, address(this), bboAmount));\n    }\n\n    /// @dev Withdrawal BBO.\n    function withdrawBBO() payable {\n        require(depositStartTime > 0);\n        require(bboDeposited > 0);\n\n        Record storage record = records[msg.sender];\n        require(now >= record.timestamp + WITHDRAWAL_DELAY);\n        require(record.bboAmount > 0);\n\n        uint bboWithdrawalBase = record.bboAmount;\n        if (msg.value > 0) {\n            bboWithdrawalBase = bboWithdrawalBase\n                .min256(msg.value.mul(WITHDRAWAL_SCALE));\n        }\n\n        uint bboBonus = getBonus(bboWithdrawalBase);\n        uint balance = bboBalance();\n        uint bboAmount = balance.min256(bboWithdrawalBase + bboBonus);\n        \n        bboDeposited = bboDeposited.sub(bboWithdrawalBase);\n        record.bboAmount = record.bboAmount.sub(bboWithdrawalBase);\n\n        if (record.bboAmount == 0) {\n            delete records[msg.sender];\n        } else {\n            records[msg.sender] = record;\n        }\n\n        emit Withdrawal(withdrawId++, msg.sender, bboAmount);\n\n        require(ERC20(bboTokenAddress).transfer(msg.sender, bboAmount));\n        if (msg.value > 0) {\n            msg.sender.transfer(msg.value);\n        }\n    }\n\n    function getBonus(uint _bboWithdrawalBase) constant returns (uint) {\n        return internalCalculateBonus(bboBalance() - bboDeposited,bboDeposited, _bboWithdrawalBase);\n    }\n\n    function internalCalculateBonus(uint _totalBonusRemaining, uint _bboDeposited, uint _bboWithdrawalBase) constant returns (uint) {\n        require(_bboDeposited > 0);\n        require(_totalBonusRemaining >= 0);\n\n        // The bonus is non-linear function to incentivize later withdrawal.\n        // bonus = _totalBonusRemaining * power(_bboWithdrawalBase/_bboDeposited, 1.0625)\n        return _totalBonusRemaining\n            .mul(_bboWithdrawalBase.mul(sqrt(sqrt(sqrt(sqrt(_bboWithdrawalBase))))))\n            .div(_bboDeposited.mul(sqrt(sqrt(sqrt(sqrt(_bboDeposited))))));\n    }\n\n    function sqrt(uint x) internal constant returns (uint) {\n        uint y = x;\n        while (true) {\n            uint z = (y + (x / y)) / 2;\n            uint w = (z + (x / z)) / 2;\n            if (w == y) {\n                if (w < y) return w;\n                else return y;\n            }\n            y = w;\n        }\n    }\n}",
  "sourcePath": "/Users/yena/Documents/tuongnguyen/bigbom-hold/contracts/BBOHoldingContract.sol",
  "compiler": {
    "name": "solc",
    "version": "0.4.24+commit.e67f0147.Emscripten.clang"
  },
  "schemaVersion": "2.0.1",
  "updatedAt": "2018-11-06T08:10:33.323Z"
}