{
  "contractName": "BBOHoldingContract",
  "abi": [
    {
      "constant": true,
      "inputs": [],
      "name": "WITHDRAWAL_DELAY",
      "outputs": [
        {
          "name": "",
          "type": "uint256"
        }
      ],
      "payable": false,
      "stateMutability": "view",
      "type": "function"
    },
    {
      "constant": true,
      "inputs": [],
      "name": "withdrawId",
      "outputs": [
        {
          "name": "",
          "type": "uint256"
        }
      ],
      "payable": false,
      "stateMutability": "view",
      "type": "function"
    },
    {
      "constant": true,
      "inputs": [],
      "name": "depositStartTime",
      "outputs": [
        {
          "name": "",
          "type": "uint256"
        }
      ],
      "payable": false,
      "stateMutability": "view",
      "type": "function"
    },
    {
      "constant": true,
      "inputs": [],
      "name": "bboDeposited",
      "outputs": [
        {
          "name": "",
          "type": "uint256"
        }
      ],
      "payable": false,
      "stateMutability": "view",
      "type": "function"
    },
    {
      "constant": true,
      "inputs": [],
      "name": "depositStopTime",
      "outputs": [
        {
          "name": "",
          "type": "uint256"
        }
      ],
      "payable": false,
      "stateMutability": "view",
      "type": "function"
    },
    {
      "constant": true,
      "inputs": [],
      "name": "owner",
      "outputs": [
        {
          "name": "",
          "type": "address"
        }
      ],
      "payable": false,
      "stateMutability": "view",
      "type": "function"
    },
    {
      "constant": true,
      "inputs": [],
      "name": "depositId",
      "outputs": [
        {
          "name": "",
          "type": "uint256"
        }
      ],
      "payable": false,
      "stateMutability": "view",
      "type": "function"
    },
    {
      "constant": true,
      "inputs": [],
      "name": "WITHDRAWAL_SCALE",
      "outputs": [
        {
          "name": "",
          "type": "uint256"
        }
      ],
      "payable": false,
      "stateMutability": "view",
      "type": "function"
    },
    {
      "constant": true,
      "inputs": [],
      "name": "DRAIN_DELAY",
      "outputs": [
        {
          "name": "",
          "type": "uint256"
        }
      ],
      "payable": false,
      "stateMutability": "view",
      "type": "function"
    },
    {
      "constant": true,
      "inputs": [],
      "name": "bboTokenAddress",
      "outputs": [
        {
          "name": "",
          "type": "address"
        }
      ],
      "payable": false,
      "stateMutability": "view",
      "type": "function"
    },
    {
      "constant": true,
      "inputs": [],
      "name": "DEPOSIT_PERIOD",
      "outputs": [
        {
          "name": "",
          "type": "uint256"
        }
      ],
      "payable": false,
      "stateMutability": "view",
      "type": "function"
    },
    {
      "inputs": [
        {
          "name": "_bboTokenAddress",
          "type": "address"
        },
        {
          "name": "_owner",
          "type": "address"
        }
      ],
      "payable": false,
      "stateMutability": "nonpayable",
      "type": "constructor"
    },
    {
      "payable": true,
      "stateMutability": "payable",
      "type": "fallback"
    },
    {
      "anonymous": false,
      "inputs": [
        {
          "indexed": false,
          "name": "_time",
          "type": "uint256"
        }
      ],
      "name": "Started",
      "type": "event"
    },
    {
      "anonymous": false,
      "inputs": [
        {
          "indexed": false,
          "name": "_bboAmount",
          "type": "uint256"
        }
      ],
      "name": "Drained",
      "type": "event"
    },
    {
      "anonymous": false,
      "inputs": [
        {
          "indexed": false,
          "name": "_depositId",
          "type": "uint256"
        },
        {
          "indexed": true,
          "name": "_addr",
          "type": "address"
        },
        {
          "indexed": false,
          "name": "_bboAmount",
          "type": "uint256"
        }
      ],
      "name": "Deposit",
      "type": "event"
    },
    {
      "anonymous": false,
      "inputs": [
        {
          "indexed": false,
          "name": "_withdrawId",
          "type": "uint256"
        },
        {
          "indexed": true,
          "name": "_addr",
          "type": "address"
        },
        {
          "indexed": false,
          "name": "_bboAmount",
          "type": "uint256"
        }
      ],
      "name": "Withdrawal",
      "type": "event"
    },
    {
      "constant": false,
      "inputs": [],
      "name": "start",
      "outputs": [],
      "payable": false,
      "stateMutability": "nonpayable",
      "type": "function"
    },
    {
      "constant": false,
      "inputs": [],
      "name": "drain",
      "outputs": [],
      "payable": false,
      "stateMutability": "nonpayable",
      "type": "function"
    },
    {
      "constant": true,
      "inputs": [],
      "name": "bboBalance",
      "outputs": [
        {
          "name": "",
          "type": "uint256"
        }
      ],
      "payable": false,
      "stateMutability": "view",
      "type": "function"
    },
    {
      "constant": false,
      "inputs": [],
      "name": "depositBBO",
      "outputs": [],
      "payable": true,
      "stateMutability": "payable",
      "type": "function"
    },
    {
      "constant": false,
      "inputs": [],
      "name": "withdrawBBO",
      "outputs": [],
      "payable": true,
      "stateMutability": "payable",
      "type": "function"
    },
    {
      "constant": true,
      "inputs": [
        {
          "name": "_bboWithdrawalBase",
          "type": "uint256"
        }
      ],
      "name": "getBonus",
      "outputs": [
        {
          "name": "",
          "type": "uint256"
        }
      ],
      "payable": false,
      "stateMutability": "view",
      "type": "function"
    },
    {
      "constant": true,
      "inputs": [
        {
          "name": "_totalBonusRemaining",
          "type": "uint256"
        },
        {
          "name": "_bboDeposited",
          "type": "uint256"
        },
        {
          "name": "_bboWithdrawalBase",
          "type": "uint256"
        }
      ],
      "name": "internalCalculateBonus",
      "outputs": [
        {
          "name": "",
          "type": "uint256"
        }
      ],
      "payable": false,
      "stateMutability": "view",
      "type": "function"
    }
  ],
  "bytecode": "0x608060405260008060006101000a81548173ffffffffffffffffffffffffffffffffffffffff021916908373ffffffffffffffffffffffffffffffffffffffff1602179055506000600160006101000a81548173ffffffffffffffffffffffffffffffffffffffff021916908373ffffffffffffffffffffffffffffffffffffffff160217905550600060025560006003556000600455600060065560006007553480156100ac57600080fd5b506040516040806115488339810180604052810190808051906020019092919080519060200190929190505050600073ffffffffffffffffffffffffffffffffffffffff168273ffffffffffffffffffffffffffffffffffffffff161415151561011557600080fd5b600073ffffffffffffffffffffffffffffffffffffffff168173ffffffffffffffffffffffffffffffffffffffff161415151561015157600080fd5b816000806101000a81548173ffffffffffffffffffffffffffffffffffffffff021916908373ffffffffffffffffffffffffffffffffffffffff16021790555080600160006101000a81548173ffffffffffffffffffffffffffffffffffffffff021916908373ffffffffffffffffffffffffffffffffffffffff1602179055505050611365806101e36000396000f3006080604052600436106100fc576000357c0100000000000000000000000000000000000000000000000000000000900463ffffffff1680630ebb172a146101525780631648371d1461017d578063298d3567146101a857806336d43c24146101b25780634aa66b28146101dd578063587419d51461021e5780636abab2fd1461024957806373c4942a146102745780638da5cb5b1461029f5780639852099c146102f65780639890220b14610321578063ab4b4def14610338578063be9a655514610363578063c99f33571461037a578063dd4f5f0f146103a5578063ef427776146103af578063f3ddf15914610404578063fd090e471461045b575b600060035411151561010d57600080fd5b600354421015801561012157506004544211155b156101335761012e610486565b610150565b60045442111561014a57610145610952565b61014f565b600080fd5b5b005b34801561015e57600080fd5b50610167610d0d565b6040518082815260200191505060405180910390f35b34801561018957600080fd5b50610192610d15565b6040518082815260200191505060405180910390f35b6101b0610486565b005b3480156101be57600080fd5b506101c7610e13565b6040518082815260200191505060405180910390f35b3480156101e957600080fd5b5061020860048036038101908080359060200190929190505050610e19565b6040518082815260200191505060405180910390f35b34801561022a57600080fd5b50610233610e3a565b6040518082815260200191505060405180910390f35b34801561025557600080fd5b5061025e610e40565b6040518082815260200191505060405180910390f35b34801561028057600080fd5b50610289610e46565b6040518082815260200191505060405180910390f35b3480156102ab57600080fd5b506102b4610e4c565b604051808273ffffffffffffffffffffffffffffffffffffffff1673ffffffffffffffffffffffffffffffffffffffff16815260200191505060405180910390f35b34801561030257600080fd5b5061030b610e72565b6040518082815260200191505060405180910390f35b34801561032d57600080fd5b50610336610e78565b005b34801561034457600080fd5b5061034d61107a565b6040518082815260200191505060405180910390f35b34801561036f57600080fd5b50610378611081565b005b34801561038657600080fd5b5061038f61113d565b6040518082815260200191505060405180910390f35b6103ad610952565b005b3480156103bb57600080fd5b506103ee600480360381019080803590602001909291908035906020019092919080359060200190929190505050611145565b6040518082815260200191505060405180910390f35b34801561041057600080fd5b506104196111f7565b604051808273ffffffffffffffffffffffffffffffffffffffff1673ffffffffffffffffffffffffffffffffffffffff16815260200191505060405180910390f35b34801561046757600080fd5b5061047061121c565b6040518082815260200191505060405180910390f35b60008060008060035411151561049b57600080fd5b6000341415156104aa57600080fd5b60035442101580156104be57506004544211155b15156104c957600080fd5b6000809054906101000a900473ffffffffffffffffffffffffffffffffffffffff1692506106de8373ffffffffffffffffffffffffffffffffffffffff1663dd62ed3e33306040518363ffffffff167c0100000000000000000000000000000000000000000000000000000000028152600401808373ffffffffffffffffffffffffffffffffffffffff1673ffffffffffffffffffffffffffffffffffffffff1681526020018273ffffffffffffffffffffffffffffffffffffffff1673ffffffffffffffffffffffffffffffffffffffff16815260200192505050602060405180830381600087803b1580156105bf57600080fd5b505af11580156105d3573d6000803e3d6000fd5b505050506040513d60208110156105e957600080fd5b81019080805190602001909291905050508473ffffffffffffffffffffffffffffffffffffffff166370a08231336040518263ffffffff167c0100000000000000000000000000000000000000000000000000000000028152600401808273ffffffffffffffffffffffffffffffffffffffff1673ffffffffffffffffffffffffffffffffffffffff168152602001915050602060405180830381600087803b15801561069557600080fd5b505af11580156106a9573d6000803e3d6000fd5b505050506040513d60208110156106bf57600080fd5b810190808051906020019092919050505061122390919063ffffffff16565b91506000821115156106ef57600080fd5b600560003373ffffffffffffffffffffffffffffffffffffffff1673ffffffffffffffffffffffffffffffffffffffff168152602001908152602001600020905061074782826000015461123c90919063ffffffff16565b816000018190555042816001018190555080600560003373ffffffffffffffffffffffffffffffffffffffff1673ffffffffffffffffffffffffffffffffffffffff16815260200190815260200160002060008201548160000155600182015481600101559050506107c48260025461123c90919063ffffffff16565b6002819055503373ffffffffffffffffffffffffffffffffffffffff167feaa18152488ce5959073c9c79c88ca90b3d96c00de1f118cfaad664c3dab06b9600660008154809291906001019190505584604051808381526020018281526020019250505060405180910390a28273ffffffffffffffffffffffffffffffffffffffff166323b872dd3330856040518463ffffffff167c0100000000000000000000000000000000000000000000000000000000028152600401808473ffffffffffffffffffffffffffffffffffffffff1673ffffffffffffffffffffffffffffffffffffffff1681526020018373ffffffffffffffffffffffffffffffffffffffff1673ffffffffffffffffffffffffffffffffffffffff1681526020018281526020019350505050602060405180830381600087803b15801561090757600080fd5b505af115801561091b573d6000803e3d6000fd5b505050506040513d602081101561093157600080fd5b8101908080519060200190929190505050151561094d57600080fd5b505050565b60008060008060008060035411151561096a57600080fd5b600060025411151561097b57600080fd5b600560003373ffffffffffffffffffffffffffffffffffffffff1673ffffffffffffffffffffffffffffffffffffffff16815260200190815260200160002094506302c7ea0085600101540142101515156109d557600080fd5b600085600001541115156109e857600080fd5b846000015493506000341115610a2357610a20610a11629896803461125890919063ffffffff16565b8561122390919063ffffffff16565b93505b610a2c84610e19565b9250610a36610d15565b9150610a4d8385018361122390919063ffffffff16565b9050610a648460025461129090919063ffffffff16565b600281905550610a8184866000015461129090919063ffffffff16565b8560000181905550600085600001541415610aed57600560003373ffffffffffffffffffffffffffffffffffffffff1673ffffffffffffffffffffffffffffffffffffffff16815260200190815260200160002060008082016000905560018201600090555050610b45565b84600560003373ffffffffffffffffffffffffffffffffffffffff1673ffffffffffffffffffffffffffffffffffffffff16815260200190815260200160002060008201548160000155600182015481600101559050505b3373ffffffffffffffffffffffffffffffffffffffff167f37e8063b72a944a76de602f32b82fd8c2a1c6f99564c727ffaf913c7762cd420600760008154809291906001019190505583604051808381526020018281526020019250505060405180910390a26000809054906101000a900473ffffffffffffffffffffffffffffffffffffffff1673ffffffffffffffffffffffffffffffffffffffff1663a9059cbb33836040518363ffffffff167c0100000000000000000000000000000000000000000000000000000000028152600401808373ffffffffffffffffffffffffffffffffffffffff1673ffffffffffffffffffffffffffffffffffffffff16815260200182815260200192505050602060405180830381600087803b158015610c6f57600080fd5b505af1158015610c83573d6000803e3d6000fd5b505050506040513d6020811015610c9957600080fd5b81019080805190602001909291905050501515610cb557600080fd5b6000341115610d06573373ffffffffffffffffffffffffffffffffffffffff166108fc349081150290604051600060405180830381858888f19350505050158015610d04573d6000803e3d6000fd5b505b5050505050565b6302c7ea0081565b60008060009054906101000a900473ffffffffffffffffffffffffffffffffffffffff1673ffffffffffffffffffffffffffffffffffffffff166370a08231306040518263ffffffff167c0100000000000000000000000000000000000000000000000000000000028152600401808273ffffffffffffffffffffffffffffffffffffffff1673ffffffffffffffffffffffffffffffffffffffff168152602001915050602060405180830381600087803b158015610dd357600080fd5b505af1158015610de7573d6000803e3d6000fd5b505050506040513d6020811015610dfd57600080fd5b8101908080519060200190929190505050905090565b60075481565b6000610e33600254610e29610d15565b0360025484611145565b9050919050565b60035481565b60025481565b60045481565b600160009054906101000a900473ffffffffffffffffffffffffffffffffffffffff1681565b60065481565b6000600160009054906101000a900473ffffffffffffffffffffffffffffffffffffffff1673ffffffffffffffffffffffffffffffffffffffff163373ffffffffffffffffffffffffffffffffffffffff16141515610ed657600080fd5b6000600354118015610ef0575063058fd400600354014210155b1515610efb57600080fd5b610f03610d15565b9050600081111515610f1457600080fd5b6000809054906101000a900473ffffffffffffffffffffffffffffffffffffffff1673ffffffffffffffffffffffffffffffffffffffff1663a9059cbb600160009054906101000a900473ffffffffffffffffffffffffffffffffffffffff16836040518363ffffffff167c0100000000000000000000000000000000000000000000000000000000028152600401808373ffffffffffffffffffffffffffffffffffffffff1673ffffffffffffffffffffffffffffffffffffffff16815260200182815260200192505050602060405180830381600087803b158015610ffa57600080fd5b505af115801561100e573d6000803e3d6000fd5b505050506040513d602081101561102457600080fd5b8101908080519060200190929190505050151561104057600080fd5b7fdef931299fe61d176f949118058530c1f3f539dcb6950b4e372c9b835c33ca07816040518082815260200191505060405180910390a150565b6298968081565b600160009054906101000a900473ffffffffffffffffffffffffffffffffffffffff1673ffffffffffffffffffffffffffffffffffffffff163373ffffffffffffffffffffffffffffffffffffffff161415156110dd57600080fd5b60006003541415156110ee57600080fd5b42600381905550624f1a00600354016004819055507e6e0c97de781a7389d44ba8fd35d1467cabb17ed04d038d166d34ab819213f36003546040518082815260200191505060405180910390a1565b63058fd40081565b6000808311151561115557600080fd5b6000841015151561116557600080fd5b6111ee61119b61118c61118761118261117d886112a9565b6112a9565b6112a9565b6112a9565b8561125890919063ffffffff16565b6111e06111d16111c26111bd6111b86111b3896112a9565b6112a9565b6112a9565b6112a9565b8661125890919063ffffffff16565b8761125890919063ffffffff16565b61132390919063ffffffff16565b90509392505050565b6000809054906101000a900473ffffffffffffffffffffffffffffffffffffffff1681565b624f1a0081565b60008183106112325781611234565b825b905092915050565b6000818301905082811015151561124f57fe5b80905092915050565b60008083141561126b576000905061128a565b818302905081838281151561127c57fe5b0414151561128657fe5b8090505b92915050565b600082821115151561129e57fe5b818303905092915050565b6000806000808492505b60011561131a57600283868115156112c757fe5b0484018115156112d357fe5b049150600282868115156112e357fe5b0483018115156112ef57fe5b04905082811415611312578281101561130a5780935061131b565b82935061131b565b8092506112b3565b5b505050919050565b6000818381151561133057fe5b049050929150505600a165627a7a7230582064dcadbdecacf8820d12ecf8b04ff194fe001b1b377568d606a1b32d393c701f0029",
  "source": "\npragma solidity ^0.4.24;\n\nimport './zeppelin/math/SafeMath.sol';\nimport './zeppelin/math/Math.sol';\nimport './zeppelin/token/ERC20/ERC20.sol';\n\n/// @title BibBom Token Holding Incentive Program\n/// @author TranTho - <thoff@bigbom.com>.\n/// For more information, please visit https://bigbom.com.\ncontract BBOHoldingContract {\n    using SafeMath for uint;\n    using Math for uint;\n   \n    // During the first 60 days of deployment, this contract opens for deposit of BBO.\n    uint public constant DEPOSIT_PERIOD             = 60 days; // = 2 months\n\n    // 18 months after deposit, user can withdrawal all or part of his/her BBO with bonus.\n    // The bonus is this contract's initial BBO balance.\n    uint public constant WITHDRAWAL_DELAY           = 540 days; // = 1 year and 6 months\n\n    // Send 0.001ETH per 10000 BBO partial withdrawal, or 0 for a once-for-all withdrawal.\n    // All ETH will be returned.\n    uint public constant WITHDRAWAL_SCALE           = 1E7; // 1ETH for withdrawal of 10,000,000 BBO.\n\n    // Ower can drain all remaining BBO after 3 years.\n    uint public constant DRAIN_DELAY                = 1080 days; // = 3 years.\n    \n    address public bboTokenAddress  = 0x0;\n    address public owner            = 0x0;\n\n    uint public bboDeposited        = 0;\n    uint public depositStartTime    = 0;\n    uint public depositStopTime     = 0;\n\n    struct Record {\n        uint bboAmount;\n        uint timestamp;\n    }\n\n    mapping (address => Record) records;\n    \n    /* \n     * EVENTS\n     */\n\n    /// Emitted when program starts.\n    event Started(uint _time);\n\n    /// Emitted when all BBO are drained.\n    event Drained(uint _bboAmount);\n\n    /// Emitted for each sucuessful deposit.\n    uint public depositId = 0;\n    event Deposit(uint _depositId, address indexed _addr, uint _bboAmount);\n\n    /// Emitted for each sucuessful deposit.\n    uint public withdrawId = 0;\n    event Withdrawal(uint _withdrawId, address indexed _addr, uint _bboAmount);\n\n    /// @dev Initialize the contract\n    /// @param _bboTokenAddress BBO ERC20 token address\n    constructor (address _bboTokenAddress, address _owner) public {\n        require(_bboTokenAddress != address(0));\n        require(_owner != address(0));\n\n        bboTokenAddress = _bboTokenAddress;\n        owner = _owner;\n    }\n\n    /*\n     * PUBLIC FUNCTIONS\n     */\n\n    /// @dev start the program.\n    function start() public {\n        require(msg.sender == owner);\n        require(depositStartTime == 0);\n\n        depositStartTime = now;\n        depositStopTime  = depositStartTime + DEPOSIT_PERIOD;\n\n        emit Started(depositStartTime);\n    }\n\n\n    /// @dev drain BBO.\n    function drain() public {\n        require(msg.sender == owner);\n        require(depositStartTime > 0 && now >= depositStartTime + DRAIN_DELAY);\n\n        uint balance = bboBalance();\n        require(balance > 0);\n\n        require(ERC20(bboTokenAddress).transfer(owner, balance));\n\n        emit Drained(balance);\n    }\n\n    function () payable {\n        require(depositStartTime > 0);\n\n        if (now >= depositStartTime && now <= depositStopTime) {\n            depositBBO();\n        } else if (now > depositStopTime){\n            withdrawBBO();\n        } else {\n            revert();\n        }\n    }\n\n    /// @return Current BBO balance.\n    function bboBalance() public constant returns (uint) {\n        return ERC20(bboTokenAddress).balanceOf(address(this));\n    }\n\n    /// @dev Deposit BBO.\n    function depositBBO() payable {\n        require(depositStartTime > 0);\n        require(msg.value == 0);\n        require(now >= depositStartTime && now <= depositStopTime);\n        \n        ERC20 bboToken = ERC20(bboTokenAddress);\n        uint bboAmount = bboToken\n            .balanceOf(msg.sender)\n            .min256(bboToken.allowance(msg.sender, address(this)));\n\n        require(bboAmount > 0);\n\n        Record storage record = records[msg.sender];\n        record.bboAmount = record.bboAmount.add(bboAmount);\n        record.timestamp = now;\n        records[msg.sender] = record;\n\n        bboDeposited = bboDeposited.add(bboAmount);\n\n        emit Deposit(depositId++, msg.sender, bboAmount);\n        \n        require(bboToken.transferFrom(msg.sender, address(this), bboAmount));\n    }\n\n    /// @dev Withdrawal BBO.\n    function withdrawBBO() payable {\n        require(depositStartTime > 0);\n        require(bboDeposited > 0);\n\n        Record storage record = records[msg.sender];\n        require(now >= record.timestamp + WITHDRAWAL_DELAY);\n        require(record.bboAmount > 0);\n\n        uint bboWithdrawalBase = record.bboAmount;\n        if (msg.value > 0) {\n            bboWithdrawalBase = bboWithdrawalBase\n                .min256(msg.value.mul(WITHDRAWAL_SCALE));\n        }\n\n        uint bboBonus = getBonus(bboWithdrawalBase);\n        uint balance = bboBalance();\n        uint bboAmount = balance.min256(bboWithdrawalBase + bboBonus);\n        \n        bboDeposited = bboDeposited.sub(bboWithdrawalBase);\n        record.bboAmount = record.bboAmount.sub(bboWithdrawalBase);\n\n        if (record.bboAmount == 0) {\n            delete records[msg.sender];\n        } else {\n            records[msg.sender] = record;\n        }\n\n        emit Withdrawal(withdrawId++, msg.sender, bboAmount);\n\n        require(ERC20(bboTokenAddress).transfer(msg.sender, bboAmount));\n        if (msg.value > 0) {\n            msg.sender.transfer(msg.value);\n        }\n    }\n\n    function getBonus(uint _bboWithdrawalBase) constant returns (uint) {\n        return internalCalculateBonus(bboBalance() - bboDeposited,bboDeposited, _bboWithdrawalBase);\n    }\n\n    function internalCalculateBonus(uint _totalBonusRemaining, uint _bboDeposited, uint _bboWithdrawalBase) constant returns (uint) {\n        require(_bboDeposited > 0);\n        require(_totalBonusRemaining >= 0);\n\n        // The bonus is non-linear function to incentivize later withdrawal.\n        // bonus = _totalBonusRemaining * power(_bboWithdrawalBase/_bboDeposited, 1.0625)\n        return _totalBonusRemaining\n            .mul(_bboWithdrawalBase.mul(sqrt(sqrt(sqrt(sqrt(_bboWithdrawalBase))))))\n            .div(_bboDeposited.mul(sqrt(sqrt(sqrt(sqrt(_bboDeposited))))));\n    }\n\n    function sqrt(uint x) internal constant returns (uint) {\n        uint y = x;\n        while (true) {\n            uint z = (y + (x / y)) / 2;\n            uint w = (z + (x / z)) / 2;\n            if (w == y) {\n                if (w < y) return w;\n                else return y;\n            }\n            y = w;\n        }\n    }\n}",
  "sourcePath": "/Users/trantho/Code/SmartContract/BBOHoldingContract/contracts/BBOHoldingContract.sol",
  "compiler": {
    "name": "solc",
    "version": "0.4.24+commit.e67f0147.Emscripten.clang"
  },
  "schemaVersion": "2.0.1",
  "updatedAt": "2018-10-26T07:53:10.275Z"
}